{
  "contractName": "MitsukerumonX",
  "abi": [
    {
      "constant": true,
      "inputs": [
        {
          "name": "",
          "type": "uint256"
        }
      ],
      "name": "safepeople",
      "outputs": [
        {
          "name": "name",
          "type": "string"
        },
        {
          "name": "title",
          "type": "string"
        },
        {
          "name": "time",
          "type": "uint256"
        }
      ],
      "payable": false,
      "stateMutability": "view",
      "type": "function"
    },
    {
      "anonymous": false,
      "inputs": [
        {
          "indexed": false,
          "name": "id",
          "type": "uint256"
        },
        {
          "indexed": false,
          "name": "name",
          "type": "string"
        },
        {
          "indexed": false,
          "name": "title",
          "type": "string"
        },
        {
          "indexed": false,
          "name": "time",
          "type": "uint256"
        }
      ],
      "name": "NewSafeperson",
      "type": "event"
    },
    {
      "constant": false,
      "inputs": [
        {
          "name": "_name",
          "type": "string"
        },
        {
          "name": "_title",
          "type": "string"
        },
        {
          "name": "_time",
          "type": "uint256"
        }
      ],
      "name": "set",
      "outputs": [],
      "payable": false,
      "stateMutability": "nonpayable",
      "type": "function"
    },
    {
      "constant": true,
      "inputs": [
        {
          "name": "_index",
          "type": "uint256"
        }
      ],
      "name": "get",
      "outputs": [
        {
          "name": "",
          "type": "string"
        },
        {
          "name": "",
          "type": "string"
        },
        {
          "name": "",
          "type": "uint256"
        }
      ],
      "payable": false,
      "stateMutability": "view",
      "type": "function"
    },
    {
      "constant": true,
      "inputs": [],
      "name": "getLength",
      "outputs": [
        {
          "name": "",
          "type": "uint256"
        }
      ],
      "payable": false,
      "stateMutability": "view",
      "type": "function"
    }
  ],
  "bytecode": "0x608060405234801561001057600080fd5b50610922806100206000396000f300608060405260043610610062576000357c0100000000000000000000000000000000000000000000000000000000900463ffffffff16806347c81699146100675780635fbf2667146101205780639507d39a14610239578063be1c766b14610352575b600080fd5b34801561007357600080fd5b5061011e600480360381019080803590602001908201803590602001908080601f0160208091040260200160405190810160405280939291908181526020018383808284378201915050505050509192919290803590602001908201803590602001908080601f01602080910402602001604051908101604052809392919081815260200183838082843782019150505050505091929192908035906020019092919050505061037d565b005b34801561012c57600080fd5b5061014b60048036038101908080359060200190929190505050610532565b604051808060200180602001848152602001838103835286818151815260200191508051906020019080838360005b8381101561019557808201518184015260208101905061017a565b50505050905090810190601f1680156101c25780820380516001836020036101000a031916815260200191505b50838103825285818151815260200191508051906020019080838360005b838110156101fb5780820151818401526020810190506101e0565b50505050905090810190601f1680156102285780820380516001836020036101000a031916815260200191505b509550505050505060405180910390f35b34801561024557600080fd5b506102646004803603810190808035906020019092919050505061069b565b604051808060200180602001848152602001838103835286818151815260200191508051906020019080838360005b838110156102ae578082015181840152602081019050610293565b50505050905090810190601f1680156102db5780820380516001836020036101000a031916815260200191505b50838103825285818151815260200191508051906020019080838360005b838110156103145780820151818401526020810190506102f9565b50505050905090810190601f1680156103415780820380516001836020036101000a031916815260200191505b509550505050505060405180910390f35b34801561035e57600080fd5b50610367610845565b6040518082815260200191505060405180910390f35b600060016000606060405190810160405280878152602001868152602001858152509080600181540180825580915050906001820390600052602060002090600302016000909192909190915060008201518160000190805190602001906103e6929190610851565b506020820151816001019080519060200190610403929190610851565b506040820151816002015550500390507fef932d344f1f2ad5e31348596c47feafcf2f3b050a51377727add10f11a3323581858585604051808581526020018060200180602001848152602001838103835286818151815260200191508051906020019080838360005b8381101561048857808201518184015260208101905061046d565b50505050905090810190601f1680156104b55780820380516001836020036101000a031916815260200191505b50838103825285818151815260200191508051906020019080838360005b838110156104ee5780820151818401526020810190506104d3565b50505050905090810190601f16801561051b5780820380516001836020036101000a031916815260200191505b50965050505050505060405180910390a150505050565b60008181548110151561054157fe5b9060005260206000209060030201600091509050806000018054600181600116156101000203166002900480601f0160208091040260200160405190810160405280929190818152602001828054600181600116156101000203166002900480156105ed5780601f106105c2576101008083540402835291602001916105ed565b820191906000526020600020905b8154815290600101906020018083116105d057829003601f168201915b505050505090806001018054600181600116156101000203166002900480601f01602080910402602001604051908101604052809291908181526020018280546001816001161561010002031660029004801561068b5780601f106106605761010080835404028352916020019161068b565b820191906000526020600020905b81548152906001019060200180831161066e57829003601f168201915b5050505050908060020154905083565b606080600080848154811015156106ae57fe5b90600052602060002090600302016000016000858154811015156106ce57fe5b90600052602060002090600302016001016000868154811015156106ee57fe5b906000526020600020906003020160020154828054600181600116156101000203166002900480601f0160208091040260200160405190810160405280929190818152602001828054600181600116156101000203166002900480156107955780601f1061076a57610100808354040283529160200191610795565b820191906000526020600020905b81548152906001019060200180831161077857829003601f168201915b50505050509250818054600181600116156101000203166002900480601f0160208091040260200160405190810160405280929190818152602001828054600181600116156101000203166002900480156108315780601f1061080657610100808354040283529160200191610831565b820191906000526020600020905b81548152906001019060200180831161081457829003601f168201915b505050505091509250925092509193909250565b60008080549050905090565b828054600181600116156101000203166002900490600052602060002090601f016020900481019282601f1061089257805160ff19168380011785556108c0565b828001600101855582156108c0579182015b828111156108bf5782518255916020019190600101906108a4565b5b5090506108cd91906108d1565b5090565b6108f391905b808211156108ef5760008160009055506001016108d7565b5090565b905600a165627a7a72305820eb67e0d90bd1066cc90742a2f60fa56b9a7acba27816e78ecf21550f1b14e2920029",
  "source": "pragma solidity^0.4.23;\n\ncontract MitsukerumonX {\n\n  event NewSafeperson(uint id, string name, string title, uint time);\n\n  struct Safeperson {\n    string name;\n    string title;\n    uint time;\n  }\n\n  Safeperson[] public safepeople;\n\n  function set(string _name, string _title, uint _time) public {\n\n    uint id = safepeople.push(Safeperson(_name, _title, _time)) -1;\n    emit NewSafeperson(id, _name, _title, _time);\n  }\n\n  function get(uint _index) public view returns (string, string, uint) {\n  return(safepeople[_index].name, safepeople[_index].title, safepeople[_index].time );\n    }\n\n    function getLength() public view returns (uint){\n       return safepeople.length;\n   }\n}\n",
  "sourcePath": "/Users/macuser/mitsukerumonX/contracts/mitsukerumonX.sol",
  "compiler": {
    "name": "solc",
    "version": "0.4.24+commit.e67f0147.Emscripten.clang"
  },
  "schemaVersion": "2.0.1",
  "updatedAt": "2018-10-16T05:05:03.838Z"
}